:020000040800F2
:1000000000800120A9020008B1020008B502000822
:10001000FD02000801030008490300080000000079
:10002000000000000000000000000000811A00082D
:100030009503000800000000211B0008C5170008F8
:1000400011140008111400081114000811140008FC
:1000500011140008111400081114000811140008EC
:1000600011140008111400081114000811140008DC
:1000700011140008111400081114000811140008CC
:1000800011140008111400081114000800000000E9
:100090000000000000000000000000001114000833
:1000A000111400081114000811140008111400089C
:1000B000111400081114000811140008111400088C
:1000C000111400081114000811140008111400087C
:1000D0001114000811140008111400080000000099
:1000E0001114000811140008111400080000000089
:1000F00000000000000000000000000011140008D3
:100100000000000011140008111400081114000868
:1001100000000000000000000000000000000000DF
:10012000111400081114000811140008111400081B
:100130001114000800000000000000000000000092
:100140000000000000000000000000001114000882
:1001500011140008111400081114000811140008EB
:100160001114000811140008000000000000000035
:10017000000000000000000000000000000000007F
:100180000000000011140008000000000000000042
:100190001114000800B583B001F0ACF8304B314ABF
:1001A0001360314A1360314B314A03E01168196022
:1001B000043304322F498B42F8D32A4B1A682E4B52
:1001C0009A4204D1284B1A682C4B9A4200D0FEE781
:1001D000234B2B4A13602B4A13602B4B02E0002267
:1001E0001A600433294A9342F9D3254B1B6813B98B
:1001F000244B1B6803B1FEE701F08EF801A86946A5
:1002000001F052F8224B234DED1AAD10002404E00A
:100210001F4B53F8243098470134A542F8DC1E4B9D
:100220001E4DED1AAD10002404E01B4B53F8243092
:1002300098470134A542F8DC0198009901F03EFA94
:100240000546174B174CE41AA41004E0013C144B6C
:1002500053F824309847002CF8DC284601F000F8C9
:10026000BABADECA0000002078000020000000209A
:10027000CC2E00087C000020785634123254769838
:100280007C000020A83E00207C000020AC3E002026
:10029000D4030008D4030008D4030008D4030008E2
:1002A000D4030008D403000808B5FFF773FF00BFAC
:1002B00000BEFEE71EF0040F0CBFEFF30880EFF363
:1002C00009807146364A10472DE9F04182B0074651
:1002D0008846084C666BA56BA46A074800F0ECFFE3
:1002E000CDF800803846214632462B4601F018F8FA
:1002F00000BEFEE700ED00E0082E000800BEFEE7AD
:100300001EF0040F0CBFEFF30880EFF30980714675
:10031000244A10472DE9F04182B007468846084C30
:10032000666BA56BA46A074800F0C6FFCDF8008095
:100330003846214632462B4600F0F2FF00BEFEE76B
:1003400000ED00E0182E00081EF0040F0CBFEFF3C4
:100350000880EFF309807146134A10472DE9F041F8
:1003600082B007468846084C666BA56BA46A0748AE
:1003700000F0A2FFCDF800803846214632462B46D9
:1003800000F0CEFF00BEFEE700ED00E0242E0008E6
:1003900000BEFEE700BEFEE700BEFEE770470000BD
:0C03A000C9020008150300085D030008F6
:1003AC00CC2E0008000000207C000020CC2E000881
:1003BC0000000010000000107C000020AC3E00206B
:0803CC00000000100000001009
:1003E00010B50446074B1868074BA3FB0020800993
:1003F00000F078F84FF0FF302146002200F040F87E
:10040000002010BD0C000020D34D621008B50B4B2E
:100410001A6842F400721A601A6842F480621A6024
:100420001A6842F480721A60032000F017F80F2057
:10043000FFF7D6FF01F06EF9002008BD003C024036
:10044000024B1A6801321A60704700BF5C3E002000
:10045000014B1868704700BF5C3E002000F00700A9
:10046000064AD36823F4E0631B041B0C43EA002311
:1004700043F0BF6343F40033D360704700ED00E006
:1004800030B4164BDB68C3F30223C3F10705042D18
:1004900028BF04251C1D062C01D9033B00E00023C6
:1004A000012404FA05F5013D2940994004FA03F3BB
:1004B000013B1A400A43002806DA00F00F0012013F
:1004C000D2B2074B1A5407E01201D2B200F16040D9
:1004D00000F5614080F8002330BC704700ED00E07B
:1004E00014ED00E00138B0F1807F0AD2064B58606D
:1004F000F021064A82F823100020986007221A6033
:1005000070470120704700BF10E000E000ED00E000
:10051000042805D1054B1A6842F004021A6070479E
:10052000024B1A6822F004021A60704710E000E0E3
:100530002DE9F00183B00023C5E01E4601229A4058
:100540000C681440944240F0BD804D68022D01D0EB
:10055000122D14D1DD08083550F8257003F0070C72
:100560004FEA8C0C4FF00F0808FA0CF827EA08083D
:100570000F6907FA0CF747EA080740F82570076883
:100580005D004FF0030C0CFA05FC6FEA0C0C0CEA52
:1005900007084F6807F00307AF4047EA08070760FE
:1005A0004F6807F1FF38B8F1010F03D9112F01D0BF
:1005B000122F11D187680CEA0708CF68AF4047EACD
:1005C00008078760476827EA02024F68C7F30017E9
:1005D00007FA06F632434260C2680CEA020C8A68E7
:1005E000AA4042EA0C02C2604A6812F0805F69D0F9
:1005F00000220192374A556C45F480455564526C8F
:1006000002F480420192019A9A08961C324D55F8E4
:10061000267003F00305AD000F26AE4027EA06065C
:100620002E4FB84219D007F58067B84213D007F5AE
:100630008067B8420DD007F58067B84207D007F54C
:100640008067B84201D1042708E0072706E00327A6
:1006500004E0022702E0012700E0002707FA05F581
:10066000354302321C4E46F822501D4A1568E243BB
:1006700002EA05064F6817F4803F01D044EA0506F8
:10068000174D2E606D6802EA05064F6817F4003FAB
:1006900001D044EA0506124D6E60AD6802EA050617
:1006A0004F6817F4801F01D044EA05060C4DAE6078
:1006B000ED682A404E6816F4001F01D044EA050296
:1006C000074CE26001330F2B7FF637AF03B0BDE874
:1006D000F00170470038024000380140000002403D
:1006E000003C01400AB18161704709048161704793
:1006F000436959404161704730B583B0044603688F
:1007000013F0010F5AD09F4B9B6803F00C03042B8E
:100710000AD09C4B9B6803F00C03082B0DD1994B1E
:100720005B6813F4800F08D0964B1B6813F4003FEE
:1007300044D06368002B41D19EE16368B3F5803FEC
:1007400005D1904B1A6842F480321A6015E0B3F577
:10075000A02F09D18B4B1A6842F480221A601A68C4
:1007600042F480321A6008E0864B1A6822F4803224
:100770001A601A6822F480221A6063687BB1FFF75E
:1007800067FE054605E0FFF763FE401B642800F2A4
:1007900075817C4B1B6813F4003FF4D00EE0FFF72B
:1007A00057FE054605E0FFF753FE401B642800F2A4
:1007B0006781744B1B6813F4003FF4D1236813F076
:1007C000020F5AD06F4B9B6813F00C0F0AD06D4B81
:1007D0009B6803F00C03082B1BD16A4B5B6813F476
:1007E000800F16D1674B1B6813F0020F03D0E3682C
:1007F000012B40F04781634B196821F0F801226911
:10080000F82090FAA0F0B0FA80F082400A431A6013
:1008100033E0E368FBB101225B4B1A60FFF718FE7F
:10082000054605E0FFF714FE401B022800F22C816C
:10083000544B1B6813F0020FF4D0524B196821F08F
:10084000F8012269F82090FAA0F0B0FA80F0824016
:100850000A431A6011E000224B4B1A60FFF7F8FDC3
:10086000054605E0FFF7F4FD401B022800F20E816B
:10087000444B1B6813F0020FF4D1236813F0080FE8
:1008800026D0636993B10122404B1A60FFF7E0FD67
:10089000054605E0FFF7DCFD401B022800F2F8806A
:1008A000384B5B6F13F0020FF4D011E00022374B8E
:1008B0001A60FFF7CDFD054605E0FFF7C9FD401BB7
:1008C000022800F2E7802F4B5B6F13F0020FF4D188
:1008D000236813F0040F69D000230193294B1A6C8D
:1008E00042F080521A641B6C03F080530193019B09
:1008F000274B1A6842F480721A60FFF7A9FD05467B
:1009000005E0FFF7A5FD401B022800F2C580204B43
:100910001B6813F4807FF4D0A368012B05D1194B19
:100920001A6F42F001021A6714E0052B09D1154B2A
:100930001A6F42F004021A671A6F42F001021A6736
:1009400008E0104B1A6F22F001021A671A6F22F0AA
:1009500004021A67A3688BB1FFF77AFD054607E02A
:10096000FFF776FD401B41F28833984200F29680F3
:10097000044B1B6F13F0020FF2D017E0FFF768FD76
:1009800005460EE00038024000004742800E474214
:1009900000700040FFF75CFD401B41F28833984235
:1009A0007ED8464B1B6F13F0020FF3D1A369002BC7
:1009B00078D0424A926802F00C02082A74D0022BC6
:1009C00047D100223E4B1A60FFF742FD054604E086
:1009D000FFF73EFD401B022868D8384B1B6813F018
:1009E000007FF5D1E269236A1A43636A47F6C07152
:1009F00091FAA1F1B1FA81F18B401A43A36A5B0825
:100A0000591E4FF4403393FAA3F3B3FA83F301FA78
:100A100003F31A43E16A4FF0706393FAA3F3B3FA56
:100A200083F301FA03F31A43244B5A600122244B47
:100A30001A60FFF70DFD044604E0FFF709FD001BF7
:100A4000022835D81D4B1B6813F0007FF5D000201D
:100A500031E000221A4B1A60FFF7FAFC044604E06A
:100A6000FFF7F6FC001B022824D8144B1B6813F078
:100A7000007FF5D100201EE001201CE003201AE0D9
:100A8000032018E0012016E0032014E0032012E008
:100A9000032010E003200EE003200CE003200AE016
:100AA000032008E0002006E0012004E0032002E02B
:100AB000032000E0032003B030BD00BF0038024037
:100AC00060004742224B9B6803F00C03042B3DD08F
:100AD000082B01D01F4870471D4B586800F03F009D
:100AE0005B6813F4800F10D01B4BB3FBF0F0184B76
:100AF0005A6847F6C0731A4093FAA3F3B3FA83F324
:100B000022FA03F303FB00F00FE0124BB3FBF0F00B
:100B10000F4B5A6847F6C0731A4093FAA3F3B3FA1F
:100B200083F322FA03F303FB00F0094B5A6802F443
:100B300040324FF4403393FAA3F3B3FA83F322FA2B
:100B400003F301335B00B0FBF3F0704702487047DA
:100B5000003802400024F40000127A0070B5044608
:100B60000D46664B1B6803F00F038B4208D2CAB2D6
:100B7000624B1A701B6803F00F038B4240F0AC808D
:100B8000236813F0020F06D05D4B996821F0F00145
:100B9000A2680A439A60236813F0010F60D063686B
:100BA000012B05D1564A126812F4003F0FD195E08F
:100BB0009A1E012A05D8524A126812F0007F06D107
:100BC0008EE04F4A126812F0020F00F08B804C4A00
:100BD000916821F003010B439360FFF739FC06464F
:100BE0006368012B0ED106E0FFF732FC801B41F257
:100BF0008833984278D8424B9B6803F00C03042B4F
:100C0000F2D12DE0022B0ED106E0FFF721FC801B74
:100C100041F28833984269D8394B9B6803F00C0342
:100C2000082BF2D11CE0032B15D106E0FFF710FCD6
:100C3000801B41F2883398425AD8314B9B6803F0AD
:100C40000C030C2BF2D10BE0FFF702FC801B41F2EE
:100C5000883398424ED82A4B9B6813F00C0FF3D17F
:100C6000264B1B6803F00F03AB4207D9EAB2234BB4
:100C70001A701B6803F00F03AB423DD1236813F0D9
:100C8000040F06D01E4B996821F4E051E2680A4334
:100C90009A60236813F0080F07D0194B9A6822F462
:100CA0006042216942EAC1029A60FFF70BFF144BD0
:100CB0009A6802F0F002F02393FAA3F3B3FA83F3F5
:100CC00022FA03F30F4AD35CD8400F4B18600F2071
:100CD000FFF786FB002070BD012070BD012070BDB4
:100CE000012070BD012070BD032070BD032070BDC8
:100CF000032070BD032070BD012070BD003C024088
:100D000000380240342E00080C000020014B186807
:100D1000704700BF0C00002008B5FFF7F7FF084B35
:100D20009A6802F4E0524FF4E05393FAA3F3B3FA53
:100D300083F322FA03F3034AD35CD84008BD00BF13
:100D400000380240442E000808B5FFF7DFFF084BCB
:100D50009A6802F460424FF4604393FAA3F3B3FA43
:100D600083F322FA03F3034AD35CD84008BD00BFE3
:100D700000380240442E00082DE9F8430446036879
:100D8000196921F44051C2680A431A610268D368A4
:100D900023F4164323F00C0380682169084361693A
:100DA0000843E16901430B43D3602368596921F487
:100DB0004071A2690A435A61E369B3F5004F40F0FC
:100DC000BD80266803F1804303F510439E4203D0A3
:100DD00003F580639E4258D1FFF7B6FF00EB800019
:100DE00000EB800063685B00B0FBF3F9B04DA5FB3E
:100DF00009294FEA59194FEA0919FFF7A5FF00EB36
:100E0000800000EB800063685B00B0FBF3F8FFF745
:100E10009BFF00EB800000EB800063685B00B0FB91
:100E2000F3F3A5FB03235B09642707FB13884FEA51
:100E3000C80808F13208A5FB08384FEA181808F46A
:100E4000F878C844FFF780FF00EB800000EB8000DB
:100E500063685B00B0FBF3F9FFF776FF00EB8000FF
:100E600000EB800063685B00B0FBF3F3A5FB03239A
:100E70005B0907FB1397FF003237A5FB0735C5F366
:100E800042154544B560BDE8F883FFF745FF00EB28
:100E9000800000EB800063685B00B0FBF3F9844DD9
:100EA000A5FB09294FEA59194FEA0919FFF734FF41
:100EB00000EB800000EB800063685B00B0FBF3F8A0
:100EC000FFF72AFF00EB800000EB800063685B0007
:100ED000B0FBF3F3A5FB03235B09642707FB13882F
:100EE0004FEAC80808F13208A5FB08384FEA18187D
:100EF00008F4F878C844FFF70FFF00EB800000EB20
:100F0000800063685B00B0FBF3F9FFF705FF00EBBF
:100F1000800000EB800063685B00B0FBF3F3A5FB8F
:100F200003235B0907FB1397FF003237A5FB073547
:100F3000C5F342154544B560BDE8F88326685D4BAE
:100F40009E4203D003F580639E4258D1FFF7FCFE1A
:100F500000EB800000EB800063689B00B0FBF3F9BE
:100F6000534DA5FB09294FEA59194FEA0919FFF713
:100F7000EBFE00EB800000EB800063689B00B0FBA1
:100F8000F3F8FFF7E1FE00EB800000EB8000636800
:100F90009B00B0FBF3F3A5FB03235B09642707FB6E
:100FA00013884FEA081808F13208A5FB08384FEA01
:100FB000581808F0F008C844FFF7C6FE00EB8000A0
:100FC00000EB800063689B00B0FBF3F9FFF7BCFE09
:100FD00000EB800000EB800063689B00B0FBF3F344
:100FE000A5FB03235B0907FB13973F013237A5FBE2
:100FF0000735C5F343154544B560BDE8F883FFF7F1
:101000008BFE00EB800000EB800063689B00B0FB70
:10101000F3F9274DA5FB09294FEA59194FEA091998
:10102000FFF77AFE00EB800000EB800063689B0016
:10103000B0FBF3F8FFF770FE00EB800000EB8000E0
:1010400063689B00B0FBF3F0A5FB00304009642708
:1010500007FB10884FEA081808F13208A5FB08289A
:101060004FEA581808F0F008C844FFF755FE00EBA7
:10107000800000EB800063689B00B0FBF3F9FFF792
:101080004BFE00EB800000EB800063689B00B0FB30
:10109000F3F0A5FB0030400907FB10973F01323702
:1010A000A5FB0725C5F343154544B560BDE8F883A6
:1010B0001F85EB51001001402DE9F04106460C461A
:1010C00017469846069D1EE0B5F1FF3F1BD02DB197
:1010D000FFF7BEF9C8EB0000A84214D93368DA68FC
:1010E00022F4D072DA6033685A6922F001025A6140
:1010F000202386F8393086F83A30002386F83830D5
:101100000320BDE8F081316809682140A14214BF85
:1011100000210121B942D7D00020BDE8F08100BFF5
:1011200010B5044658B390F8393013F0FF0F04D1CE
:10113000002380F8383000F01DFB242384F8393078
:101140002368DA6822F40052DA602046FFF714FEC2
:1011500023681A6922F490421A6123685A6922F0BE
:101160002A025A612368DA6842F40052DA600020E9
:10117000E063202384F8393084F83A3010BD012030
:1011800010BD00BF2DE9F04182B004460D46174660
:101190001E4690F83910C9B2202950D1002D50D0E8
:1011A000002A50D090F83830012B4ED0012380F81F
:1011B00038300023C363212380F83930FFF748F922
:1011C0008046A784E78427E0E38C013B9BB2E3845D
:1011D000A268B2F5805F13D10096204680210022DC
:1011E0004346FFF769FF002831D123682A88C2F3FC
:1011F00008025A6023690BB902350DE001350BE096
:1012000000962046802100224346FFF755FF00BB91
:1012100023682A785A600135E28C92B2002AD3D131
:101220000096204640214346FFF746FF034690B90B
:10123000202284F83920002284F838200CE0022390
:101240000AE0012308E0012306E0022304E003236F
:1012500002E0032300E00323184602B0BDE8F0815A
:10126000FEE700BF08B50D4B1B6813B90C4A0B4BCA
:101270001A600A4B1B68033020F003001844094A27
:10128000904206D901F010F90C2303604FF0FF30B3
:1012900008BD024A1060184608BD00BF800000204B
:1012A000AC3E0020007C012001230360014B0B6059
:1012B000704700BF040000200FB400B583B004AB3A
:1012C00053F8042B01930848802101F02DF9011EE9
:1012D00003DD054800F00AF80146084603B05DF852
:1012E00004EB04B0704700BF880000204FF0FF30CF
:1012F000704700BF08B500F08DF8054B054A9A60AD
:10130000D3F8882042F47002C3F8882008BD00BFDB
:1013100000ED00E00000000808B500F0A1F808BDED
:10132000F8B504460D4617461E462648FFF7C4FF8B
:1013300025482168FFF7C0FF24486168FFF7BCFF1C
:101340002348A168FFF7B8FF2248E168FFF7B4FF20
:1013500021482169FFF7B0FF20486169FFF7ACFF22
:101360001F48A169FFF7A8FF1E48E169FFF7A4FF26
:101370001D48FFF7A1FF1D482946FFF79DFF1C4CA4
:10138000E16A1C48FFF798FF216B1B48FFF794FFA9
:10139000E16B1A48FFF790FF15F0800F03D0184853
:1013A0003946FFF789FF15F4004F03D01548314641
:1013B000FFF782FF1448FFF77FFF14480699FFF7F5
:1013C0007BFFF8BDEC2C0008FC2C00080C2D00085D
:1013D0001C2D00082C2D00083C2D00084C2D000869
:1013E0005C2D00086C2D00087C2D0008882D00085D
:1013F00000ED00E0982D0008A82D0008B82D000889
:10140000C82D0008D82D0008E82D0008F02D000890
:10141000FFF7FEBF0F4AD2F8883043F47003C2F8DA
:1014200088300D4B196841F0010119600020986067
:10143000196821F0847121F48031196007495960DD
:10144000196821F480211960D8604FF0006393601F
:10145000704700BF00ED00E000380240103000246B
:10146000224B9B6803F00C03042B07D0082B09D0F8
:10147000002B2DD11E4A1F4B1A602CE01E4A1D4B1B
:101480001A6028E0194B59685B6803F03F0311F4B8
:10149000800F09D0184AB2FBF3F3144A5268C2F322
:1014A000881202FB03F208E0114AB2FBF3F30F4A81
:1014B0005268C2F3881202FB03F20C4B5B68C3F361
:1014C000014301335B00B2FBF3F20A4B1A6002E006
:1014D000074A084B1A60054B9B68C3F30313074A7E
:1014E000D15C044B1A68CA401A6070470038024049
:1014F0000024F4000C00002040787D01342E000808
:1015000030B58BB000240194214B1A6B42F00402D9
:101510001A631A6B02F004020192019A02941A6B88
:1015200042F080021A631A6B02F080020292029A61
:1015300003941A6B42F001021A631A6B02F0010263
:101540000392039A04941A6B42F002021A631B6B13
:1015500003F002030493049B0E4D284620212246EB
:10156000FFF7C0F84FF4005305930B4B0693079415
:101570000A4805A9FEF7DCFF202305930123069303
:1015800007940894284605A9FEF7D2FF0BB030BD9A
:101590000038024000000240000021100008024014
:1015A00008B504482021FFF7A3F840F2DC5000F012
:1015B000B5FBF6E700000240FEE700BF08B50B48A8
:1015C0000B4B03604FF4E133436000238360C3603F
:1015D00003610C2242618361C361FFF7A1FD18B171
:1015E0000448E421FFF7E8FF08BD00BF683E002083
:1015F00000440040602E000800B595B00023019320
:101600002A4A116C41F080511164126C02F0805230
:101610000192019A0293264A116821F4404141F453
:1016200000411160126802F440420292029A0221C3
:10163000089101220B9210220C920E910F9310929E
:101640004FF4A8731193042312930723139308A84C
:10165000FFF752F818B11748B921FFF7ADFF0F2374
:10166000039302210491002305934FF480520692C4
:10167000079303A8FFF772FA18B10E48C721FFF7C6
:101680009BFFFFF743FB0C4BA3FB00208009FEF7F9
:1016900029FF0420FEF73CFF4FF0FF300F2100220E
:1016A000FEF7EEFE15B05DF804FB00BF0038024007
:1016B00000700040602E0008D34D621030B587B036
:1016C000FEF7A4FEFFF798FFFFF71AFFFFF776FF7C
:1016D0000C4C204600F0F7FE82B20B4821464FF03A
:1016E000FF33FFF74FFD01AC084D0FCD0FC42B6842
:1016F000236001A8002100F0F7FA054B186000F004
:10170000EDFAFEE7702E0008683E00204C2E00081F
:10171000643E002008B50320FEF7A0FE6FF00B002A
:1017200000210A46FEF7ACFE6FF00A0000210A46CF
:10173000FEF7A6FE6FF0090000210A46FEF7A0FEA4
:101740006FF0040000210A46FEF79AFE6FF00300D6
:1017500000210A46FEF794FE6FF001000F210022DF
:10176000FEF78EFE4FF0FF300F210022FEF788FEBD
:1017700008BD00BF00B587B002680F4B9A4217D171
:10178000002300930D4A116C41F400311164126C76
:1017900002F400320092009A0C220192022202927C
:1017A0000393049307230593054801A9FEF7C0FEA0
:1017B00007B05DF804FB00BF004400400038024061
:1017C0000000024008B5FEF73BFE00F0AFFA08BD8E
:1017D000124B13F0070F07D0D91D21F00701C1F5F7
:1017E00070521A440B4601E04FF470520C480360EB
:1017F000002141601A44083A22F0070209480260B9
:1018000051601160D11A59601A60074B1960074B7B
:1018100019604FF00042064B1A6070471801002013
:10182000100100200C0100201C3D002008010020B8
:10183000183D002010B4134A00E01A461368834292
:10184000FBD351685418844203D14068014451606D
:10185000104641684418A3420CD10B4C2468A342A3
:1018600006D05B681944416013681B68036002E09E
:10187000046000E00360824200D010605DF8044B19
:10188000704700BF100100200C01002070B5044615
:1018900000F040FC334B1B680BB9FFF799FF324B4C
:1018A0001B681C4247D134B1083414F0070F02D032
:1018B00024F007040834002C3FD02C4B1B689C42BA
:1018C0003DD82B4A156801E02A461D466B68A342A5
:1018D00002D22B68002BF7D1224B1B689D4230D0DF
:1018E000166808362B6813606B681B1B102B10D909
:1018F000281910F0070F08D04FF0500383F3118818
:10190000BFF36F8FBFF34F8FFEE743606C60FFF74D
:1019100091FF6A6815490B689B1A0B6015490968A5
:101920008B4201D213490B600F4B1B681A436A604C
:1019300000232B6006E0002604E0002602E00026DB
:1019400000E0002600F080FC16F0070F08D04FF0F2
:10195000500383F31188BFF36F8FBFF34F8FFEE700
:10196000304670BD0C010020183D00200801002009
:10197000100100201C3D002038B5044680B3A0F1C2
:10198000080550F8043C174A126813EA020008D10F
:101990004FF0500383F31188BFF36F8FBFF34F8F66
:1019A000FEE754F8081C41B14FF0500383F311884F
:1019B000BFF36F8FBFF34F8FFEE788B181B923EA82
:1019C000020344F8043C00F0A5FB54F8041C064B49
:1019D0001A680A441A602846FFF72CFF00F034FC0E
:1019E00038BD00BF183D0020080100200B4B1B68CC
:1019F000B3F1FF3F08D04FF0500383F31188BFF3DA
:101A00006F8FBFF34F8FFEE74FF0500383F31188C2
:101A1000BFF36F8FBFF34F8FFEE700BF10000020B2
:101A200006480068006880F3088862B661B6BFF3B4
:101A30004F8FBFF36F8F00DF00BF000008ED00E0A5
:101A4000DFF80C00016841F470010160704700008C
:101A500088ED00E04FF0807340F8043C21F0010174
:101A600040F8081C054B40F80C3C40F8202C6FF067
:101A7000020340F8243C4438704700BFED190008C9
:101A8000074B19680868B0E8F04F80F30988BFF386
:101A90006F8F4FF0000080F311887047AFF3008024
:101AA000E83D0020AFF30080AFF30080AFF300808B
:101AB0004FF0500383F31188BFF36F8FBFF34F8F45
:101AC0000A4A136801331360012B0DD1084B1B68C0
:101AD00013F0FF0F08D04FF0500383F31188BFF3CA
:101AE0006F8FBFF34F8FFEE7704700BF10000020DD
:101AF00004ED00E0094B1B6843B94FF0500383F33A
:101B00001188BFF36F8FBFF34F8FFEE7013B034A8E
:101B100013600BB983F31188704700BF10000020D9
:101B2000EFF30980BFF36F8F154B1A681EF0100F8B
:101B300008BF20ED108A20E9F04F10604DF8043DF9
:101B40004FF0500080F31188BFF34F8FBFF36F8FBA
:101B500000F05CFC4FF0000080F3118808BC1968AD
:101B60000868B0E8F04F1EF0100F08BFB0EC108A04
:101B700080F30988BFF36F8F704700BFAFF3008019
:101B8000E83D0020AFF30080AFF30080AFF30080AA
:101B900008B54FF0500383F31188BFF36F8FBFF385
:101BA0004F8F00F0BFFA18B14FF08052024B1A600D
:101BB000002383F3118808BD04ED00E0064B1A688A
:101BC000064BA3FB02129209013A054B1A60072249
:101BD000043B1A60704700BF0C000020D34D621018
:101BE00014E000E000B583B0314B1A68314B9A42E3
:101BF00008D14FF0500383F31188BFF36F8FBFF309
:101C00004F8FFEE72A4B1A682B4B9A4208D14FF0B0
:101C1000500383F31188BFF36F8FBFF34F8FFEE73D
:101C2000264B1A78D2B20192FF221A701B78DBB2CF
:101C30008DF803309DF8032002F05002204B1A70FB
:101C40000722204B1A6009E01E4B1A68013A1A60FD
:101C50009DF803305B00DBB28DF803309DF8033054
:101C600013F0800FF0D1174B1A68120202F4E062F1
:101C70001A60019AD2B2114B1A7003F512631A68F6
:101C800042F470021A601A6842F070421A60FFF75C
:101C900095FF00220C4B1A60FFF7D2FE0B4B1A681F
:101CA00042F040421A60FFF7BBFEFFF79FFE00BF05
:101CB00000ED00E071C20F4170C20F4100E400E08E
:101CC000203D0020243D00201000002034EF00E0E3
:101CD000842801D0033070470020704708B500F019
:101CE000DBF9002008BD00BFF0B585B00C464768A1
:101CF00006680569B0F90800FFF7EAFF009003AB3A
:101D0000019338463146AAB2234600F093F90128E0
:101D100001D1039800E0002005B0F0BD08B508B976
:101D20000120FFE700F00CFB002008BD08B500F023
:101D3000ABFB012801D0FFF72BFF08BD00F1080322
:101D400043604FF0FF328260C36003610023036091
:101D5000704700BF00230361704700BF43684B60BA
:101D60009A688A609A6851609960086103680133D3
:101D70000360704730B40D68B5F1FF3F01D10269CF
:101D800007E000F1080200E01A4653681C68AC4204
:101D9000FAD953684B6099608A60516008610368A2
:101DA0000133036030BC7047036942688168916009
:101DB0008268416851605A68824201D182685A60E3
:101DC0000022026118680138186070470A4B1B68CE
:101DD0001B680BB9012300E0002323B14FF0FF3251
:101DE000064B1A607047044B1B68DB68DB685A6857
:101DF000024B1A60704700BF2C3D0020083E0020B7
:101E000010B50446006BFFF7B7FD2046FFF7B4FDA1
:101E100010BD00BF2DE9F04781469846089E099FF6
:101E20000A9D2B6B02F18042013A03EB820222F001
:101E3000070A002406E00A5D2B1983F834200B5DA5
:101E400013B101340F2CF6D9002385F84330062E48
:101E500000D90626EE626E640024AC64281DFFF7EC
:101E600079FF05F11800FFF775FF2D61C6F1070630
:101E7000AE616D62EC6485F850405046494642467A
:101E8000FFF7E8FD286007B13D60BDE8F08700BFBF
:101E900038B5002407E004EB84039B000E48184487
:101EA000FFF74CFF0134062CF5D90C4D2846FFF7FF
:101EB00045FF0B4C2046FFF741FF0A48FFF73EFF66
:101EC0000948FFF73BFF0948FFF738FF084B1D6043
:101ED000084B1C6038BD00BF503D0020103E002064
:101EE000243E0020EC3D0020343D0020383E002000
:101EF0002C3D0020483D002010B50446FFF7D8FDDA
:101F0000204B1A6801321A601F4B1B6843B91E4BE5
:101F10001C601C4B1B68012B0DD1FFF7B9FF0AE0B9
:101F20001A4B1B683BB9184B1B68DA6AE36A9A4282
:101F300001D8154B1C60164B1A6801321A60E36A0F
:101F400001219940134A10680143116003EB830398
:101F50009B0011481844211DFFF700FFFFF7CAFD41
:101F60000A4B1B686BB1084B1B68DA6AE36A9A423A
:101F700007D24FF08052094B1A60BFF34F8FBFF367
:101F80006F8F10BDE43D0020E83D0020303D002073
:101F90000C3E00204C3E0020503D002004ED00E0AF
:101FA00070B504460E461C4B1D681C4B1868043067
:101FB000FFF7FAFE48B9194B1B68DB6A01229A4009
:101FC000174B196821EA02021A60B4F1FF3F07D1EA
:101FD00036B1124B196813480431FFF7BFFE70BDCC
:101FE0002C440E4B1B685C60AC4207D20E4B186849
:101FF0000A4B19680431FFF7BDFE70BD0B4B186822
:10200000064B19680431FFF7B5FE094B1B689C426B
:1020100001D2074B1C6070BD043E0020E83D00204B
:102020004C3E0020383E0020483D00202C3D002042
:10203000083E00202DE9F04385B080460F46154646
:102040001E469000FFF722FC814658B15420FFF74E
:102050001DFC044610B1C0F8309004E04846FFF77C
:102060008BFC00E000248CB10C9B00930D9B019332
:10207000029400230393404639462A463346FFF72D
:10208000C9FE2046FFF738FF012001E04FF0FF3086
:1020900005B0BDE8F08300BF00B583B00023009316
:1020A000164A0192164817498022FFF7C3FF0128FC
:1020B00014D14FF0500383F31188BFF36F8FBFF338
:1020C0004F8F4FF0FF32104B1A6001220F4B1A60F6
:1020D00000220F4B1A60FFF785FD0BE0B0F1FF3FC8
:1020E00008D14FF0500383F31188BFF36F8FBFF314
:1020F0004F8FFEE703B05DF804FB00BF003E0020F9
:10210000E52300088C2E0008083E0020303D00200A
:10211000043E0020024B1A6801321A60704700BF6B
:10212000DC3D0020F8B53D4B1B68002B68D13C4BD3
:102130001E6801361E60C6B93A4B1B681B6843B166
:102140004FF0500383F31188BFF36F8FBFF34F8FAE
:10215000FEE7344A1168344B186810601960334B3D
:102160001A6801321A60FFF731FE314B1B689E423C
:1021700003D2002439E0012400E00024294B1B682D
:102180001B680BB9012300E0002323B14FF0FF329D
:10219000274B1A6029E0234B1B68DB68DD686B68FE
:1021A0009E4202D2224A13601FE02F1D3846FFF7DD
:1021B000FBFDAB6A1BB105F11800FFF7F5FDEB6AFB
:1021C000012098401B4A11680143116003EB83030F
:1021D0009B00194818443946FFF7C0FDEA6A174BBF
:1021E0001B68DB6A9A42C6D2C8E7144B1B68DB6ADD
:1021F00003EB83039B00104AD358012B06D806E05B
:102200000F4B1A6801321A60002400E001240D4BC4
:102210001B6803B101242046F8BD00BFDC3D00204F
:10222000043E00202C3D0020483D0020283D002099
:10223000083E00204C3E0020503D0020E83D00209C
:102240004C3D0020503E002038B5344B1B6843B94C
:102250004FF0500383F31188BFF36F8FBFF34F8F9D
:10226000FEE7FFF725FC2D4B1A68013A1A601B6840
:10227000002B4BD12A4B1B682BBB002449E0294B78
:10228000DB68DC6804F11800FFF78EFD251D284689
:10229000FFF78AFDE36A01209840234A1168014351
:1022A000116003EB83039B00204818442946FFF785
:1022B00055FDE36A1E4A1268D26A934204D3012292
:1022C0001C4B1A6000E00024164B1B68002BD6D173
:1022D0000CB1FFF77BFD184B1C6854B1FFF722FFD0
:1022E00010B10122134B1A60013CF7D10022124BAE
:1022F0001A60104B1B685BB14FF080520F4B1A6095
:10230000BFF34F8FBFF36F8F012402E0002400E082
:102310000024FFF7EFFB204638BD00BFDC3D002066
:10232000E43D0020EC3D00204C3E0020503D0020CC
:10233000E83D0020503E00204C3D002004ED00E030
:1023400010B50446A0B1104B1B6843B14FF05003C9
:1023500083F31188BFF36F8FBFF34F8FFEE7FFF753
:10236000D9FE20460021FFF71BFEFFF76DFF00E0BE
:10237000002038B94FF08052044B1A60BFF34F8FE2
:10238000BFF36F8F10BD00BFDC3D002004ED00E007
:1023900010B51BE0FFF7BEFE0F4B1C68FFF754FFA4
:1023A000A4B1FFF785FB0C4BDB68DC68201DFFF751
:1023B000FBFC0A4B1A68013A1A60094B1A68013A89
:1023C0001A60FFF797FB2046FFF71AFD044B1B68C6
:1023D000002BDFD110BD00BF343D0020E43D0020C4
:1023E000E03D002008B5FFF7D3FF064B1B68012B2B
:1023F000F9D94FF08052044B1A60BFF34F8FBFF3EF
:102400006F8FF0E7503D002004ED00E0194B1B6892
:102410001BB10122184B1A6070470022164B1A603C
:10242000164B1B68B3FA83F3DBB2C3F11F0303EB54
:102430008302920012498A5842B94FF0500383F345
:102440001188BFF36F8FBFF34F8FFEE703EB83035A
:102450009B000B4A13445A6852685A6003F1080102
:102460008A4201D152685A605B68DA68054B1A608B
:10247000704700BFDC3D0020503E00204C3E002055
:10248000503D0020E83D0020054B1B6823B1054B63
:102490001B681BB90220704701207047002070475D
:1024A000303D0020DC3D0020014B1868704700BF24
:1024B0007400002010B50023934203D0CC5CC454B8
:1024C0000133F9E710BD034613F8012B002AFBD1B5
:1024D000181A0138704730B5141E9BB0054604DA4F
:1024E0008B2303604FF0FF301CE04FF40272009129
:1024F0000491ADF80C2014BF04F1FF3121464FF6D2
:10250000FF7202910591ADF80E2069461A461E9B96
:1025100000F076F8431CBCBF8B232B6014B1009BEA
:1025200000221A701BB030BD73B50093054B0646F0
:102530000D461446186831462A462346FFF7CBFF5E
:1025400002B070BD740000202DE9F0478D68AB42E9
:1025500081460C4692461F4643D38B8913F4906FF5
:102560003DD026680969C1EB06086669022206EBC0
:10257000460696FBF2F608F101023A44964238BF4D
:1025800016465B050FD5314600F01CFB054698B199
:1025900021694246FFF78EFFA38923F4906343F03D
:1025A0008003A38113E0324600F060FB054670B95A
:1025B0004846216900F0C2FA0C23C9F80030A3890B
:1025C00043F04003A3814FF0FF30BDE8F087256161
:1025D00066614544C8EB06062560A6603D46AF42ED
:1025E00000D23D462A462068514600F08CFAA36886
:1025F0005B1BA36023681D4425600020BDE8F087B5
:102600002DE9F0439DB0074603938B891C060D46C8
:1026100016460CD50B6953B9402100F0D3FA286057
:10262000286110B90C233B60C8E040236B61002394
:10263000099320238DF8293030238DF82A30334632
:102640001C4613F8012B1AB9B4EB06090FD002E0AF
:10265000252AF5D1F8E73846294632464B46FFF79A
:1026600073FF013000F0A580099B4B440993237848
:10267000002B00F09E8000234FF0FF32049307935D
:10268000059206938DF853301A9304F101094C46D4
:102690004D4E21783046052200F026FA09F1010955
:1026A000049B28B1861B0120B04003430493EEE74E
:1026B000D90644BF20228DF853201A0744BF2B228D
:1026C0008DF8532022782A2A02D0079B21460EE05B
:1026D000039A111D12680391002A01DB079204E09E
:1026E000524243F002030792049301340AE00C467D
:1026F00001312278303A092A03D80A2000FB03234B
:10270000F5E7079323782E2B1AD163782A2B0AD169
:10271000039B1A1D1B680392002B04F10204B8BF2F
:102720004FF0FF330BE0611C00230C46013122788F
:10273000303A092A03D80A2000FB0323F5E7059362
:10274000224E21783046032200F0CEF930B1861BAC
:10275000049B4020B04003430493013421781C487B
:102760008DF828100622661C00F0BEF988B1194BBE
:1027700033B9039B073323F007030833039314E0B3
:1027800003AB0093384604A92A46134BAFF30080ED
:1027900007E003AB0093384604A92A460E4B00F02D
:1027A0008FF8B0F1FF3F804603D0099B4344099363
:1027B00045E7AB895B0601D4099801E04FF0FF3093
:1027C0001DB0BDE8F08300BF962E00089C2E0008C7
:1027D000A02E000800000000492500082DE9F8435C
:1027E00015461F468A680B69DDF820809A42A8BF0B
:1027F00013462B6091F8432006460C460AB101337C
:102800002B602368990602D52B6802332B6023685E
:1028100013F006091DD094F843302268003318BF26
:10282000012392061FD5E1185A1C302081F843007D
:10283000224494F8451082F84310023313E03046E6
:10284000394604F119020123C047013007D009F1CC
:102850000109E2682B68D31A9945F0DBDBE74FF0FA
:10286000FF30BDE8F8833046394604F14302C047E3
:102870000130F4D023682A68E16803F00603042BD2
:1028800008BFC2EB01052369A2680CBF25EAE57504
:1028900000259A42C4BFC3EB0203ED184FF00009B4
:1028A000A9450ADA3046394604F11A020123C04725
:1028B0000130D4D009F10109F2E70020BDE8F88326
:1028C0002DE9FF470E7E0C9D6E2E80460C469146EC
:1028D0009A4601F1430000F0A58011D8632E22D062
:1028E00009D8002E00F0AF80582E40F0BF8081F84C
:1028F00045607B4A4FE0642E1ED0692E1CD0B5E0A7
:10290000732E00F0A48009D86F2E2BD0702E40F0CB
:10291000AD800B6843F020030B6038E0752E21D0AA
:10292000782E34D0A2E02B681A1D1B682A6001F1B2
:10293000420781F842309DE022682B6812F0800F38
:1029400003D01A1D2A601D6805E05106F9D51A1D2D
:102950002A60B3F90050002D39DA2D236D4284F836
:10296000433034E022682B6812F0800F03D01A1D28
:102970002A601D6804E05206F9D51A1D2A601D88D8
:10298000237E574A6F2B14BF0A2308231BE07823AA
:10299000544A84F845302368296813F0800F01F108
:1029A00004062E6001D00D6802E05F06FBD50D889D
:1029B000DE0744BF43F0200323601DB9236823F0E2
:1029C000200323601023002184F8431001E0444ACF
:1029D0000A236668A660002E03DB216821F004014B
:1029E000216005B96EB104F14201B5FBF3F603FBBA
:1029F00016550F46555D01F801593546002EF4D1A4
:102A000000E00746082B0AD12368DD0707D5626876
:102A100023699A4203DC302307F8013C013FC01BC5
:102A200020612CE009682B68626911F0800F04D0E6
:102A3000191D29601B681A6005E04906F8D5191DA3
:102A400029601B681A8000232361074617E02B6862
:102A50001A1D2A601F683846FFF735FD636820613C
:102A6000984288BF23612369636005E004F142074F
:102A700084F8426001232361002384F84330CDF8B9
:102A800000A04046214603AA4B46FFF7A7FE0130AF
:102A900002D14FF0FF301FE0404649463A462369D5
:102AA000D0470130F5D023689B0705D4E068039B2D
:102AB0009842B8BF18460FE00025E268039BD31A7E
:102AC0009D42F3DA4046494604F119020123D047FA
:102AD0000130DED00135F0E704B0BDE8F08700BF7B
:102AE000A72E0008B82E000810B5C9B202449042C3
:102AF000034606D01C788C4200F10100F7D118463D
:102B000010BD002010BD814270B501D300230EE03E
:102B10008C18A042FAD28518134613F1FF3305D35F
:102B2000514266182944F65CCE54F6E770BD9342D4
:102B300003D0CC5CC4540133F9E770BD30B5002933
:102B40003CD051F8042C0B1F1D49002AB8BF9B181C
:102B50000A680C4612B95A600B6030BD93420DD220
:102B600019685818904203D15A58114442681960A4
:102B70005A60236030BD994203D80A465168002943
:102B8000F9D1146815199D420AD11B682344D01845
:102B90008842136012D10868034413604B680CE04C
:102BA00002D90C23036030BD18681C188C4203D175
:102BB0000C684968204418605960536030BD00BFFC
:102BC000583E002070B5CD1C25F0030508350C2DAE
:102BD00038BF0C25002D06463FDB8D423DD3214BEF
:102BE0001C6818462146A1B10B685B1B0ED40B2B49
:102BF00003D90B60CC18CD501FE08C4202D1626823
:102C000002601AE04B6863600C4616E00C464968A7
:102C1000E9E7154C23681BB9304600F04DF82060F9
:102C20002946304600F048F8431C014615D0C41C24
:102C300024F0030484420AD1256004F10B00231D13
:102C400020F00700C31A0BD05A42E25070BD304644
:102C5000611A00F031F80130EED10C23336000200E
:102C600070BD00BF583E0020543E0020F8B5064617
:102C700014460D4621B91146BDE8F840FFF7A2BF42
:102C80001AB9FFF75BFF2046F8BD00F025F8A04217
:102C90000ED230462146FFF795FF074650B1294630
:102CA0002246FFF707FC30462946FFF747FF01E0C1
:102CB0002846F8BD3846F8BD38B5064C0023054611
:102CC00008462360FEF7CEFA431C02D1236803B105
:102CD0002B6038BD603E002051F8040C002802DA59
:102CE00004390B581844043870470000537461636A
:102CF0006B206672616D653A0A0000002052302038
:102D00003D2020253038580A000000002052312094
:102D10003D2020253038580A000000002052322083
:102D20003D2020253038580A000000002052332072
:102D30003D2020253038580A000000002052313252
:102D4000203D20253038580A00000000204C522039
:102D50003D2020253038580A000000002050432034
:102D60003D2020253038580A0000000020505352E2
:102D7000203D20253038580A000000004653522FCD
:102D80004641523A0A0000002043465352203D205B
:102D900020253038580A00002048465352203D2054
:102DA00020253038580A00002044465352203D2048
:102DB00020253038580A00002041465352203D203B
:102DC00020253038580A0000204D4D464152203D04
:102DD00020253038580A00002042464152203D202C
:102DE00020253038580A00004D6973630A0000003E
:102DF000204C522F4558435F52455455524E3D206A
:102E0000253038580A0000005B48617264466175DD
:102E10006C745D0A000000005B4275734661756C5E
:102E2000745D0A005B55736167654661756C745D1E
:102E30000A0000000000000000000000010203047E
:102E4000060708090000000001020304802E0008A4
:102E5000A115000800000000000000008000000034
:102E60002E2E2F7372632F6D61696E2E630000002A
:102E7000546869732069732061207465737400005D
:102E800064656661756C745461736B0049444C45AC
:102E9000000000004300232D302B2000686C4C0004
:102EA000656667454647003031323334353637384A
:102EB00039414243444546003031323334353637A8
:092EC00038396162636465660043
:102ECC007856341284000020000000000024F40026
:102EDC00AAAAAAAA0000000000000000000000003E
:102EEC0000000000000000000000000000000000D6
:102EFC0000000000942E00080000000000000000FC
:102F0C0000000000000000000000000000000000B5
:102F1C0000000000000000000000000000000000A5
:102F2C000000000000000000000000000000000095
:0C2F3C00000000001400002032547698C1
:040000050800019559
:00000001FF
